:100000000C9454000C9471000C9471000C947100C9
:100010000C9471000C9471000C9471000C9471009C
:100020000C9471000C9471000C9471000C9471008C
:100030000C9471000C9471000C9499000C94710054
:100040000C9471000C9471000C9471000C9471006C
:100050000C9471000C9471000C9471000C9471005C
:100060000C9471000C947100001F000000001F0030
:10007000001F101010101F00001F181818181F0064
:10008000001F1C1C1C1C1F00001F1E1E1E1E1F000C
:10009000001F1F1F1F1F1F0003070F1F0F07030055
:1000A000181C1E1F1E1C180011241FBECFEFD8E005
:1000B000DEBFCDBF11E0A0E0B1E0EAEAF4E102C0AA
:1000C00005900D92AE32B107D9F721E0AEE2B1E072
:1000D00001C01D92A535B207E1F70E941D040C94E2
:1000E000530A0C9400008FEF87B982E084BD9CE92D
:1000F00097BD80936E0085E085BD789408959091BA
:10010000050189E2989F812D112482958F7024E644
:10011000829F90191124911108C08091050190E0EF
:1001200060E971E00E942B0A0895809105018370B7
:1001300008951F920F920FB60F9211242F933F93A1
:100140004F935F936F937F938F939F93AF93BF93DF
:10015000EF93FF9380912E018F5F80932E01853660
:1001600008F46EC0E0E0F1E080818F5F80838C3323
:1001700009F064C0108281818F5F81838C3309F024
:100180005DC0118282818F5F8283883109F056C001
:10019000128283818F5F8383803231F484818F5F09
:1001A000848381E083833FC0809103018F31C1F458
:1001B00080910401843061F080910401863041F027
:1001C00080910401893021F0809104018B3059F530
:1001D000E0E0F1E084818F5F848381E0838323C04A
:1001E000809103018E3161F4809104018230D9F451
:1001F000E0E0F1E084818F5F848381E0838313C03A
:10020000809103018D3179F480910401823059F499
:100210000E947F00882339F0E0E0F1E084818F5F65
:10022000848381E08383809104018D3039F4E0E0A0
:10023000F1E081E0848385818F5F858310922E01B8
:100240000E947B08FF91EF91BF91AF919F918F9199
:100250007F916F915F914F913F912F910F900FBEC2
:100260000F901F901895CF93DF9300D000D000D04F
:10027000CDB7DEB786E0E0E0F1E0DE011196019057
:100280000D928A95E1F729813A814B815C816D81DC
:100290007E8180E090E026960FB6F894DEBF0FBE18
:1002A000CDBFDF91CF910895CF93DF9300D000D0E1
:1002B00000D0CDB7DEB749835A836B837C838D83AF
:1002C0009E8386E0FE013196A0E0B1E001900D92A0
:1002D0008A95E1F726960FB6F894DEBF0FBECDBF24
:1002E000DF91CF910895FC0195B1996195B99BB1CA
:1002F00090689BB990E03EC02AB1237C2AB94AB1EC
:10030000692F70E020E230E0092E02C03595279574
:100310000A94E2F7242B2AB9AFE9BFE01197F1F76D
:1003200000C000001C9907C0DB01A25EBE4F8C918B
:10033000808381E008951B9908C0DB01A25EBE4F57
:1003400014968C91808381E00895189908C0DB0190
:10035000A25EBE4F18968C91808381E008954F99DC
:1003600008C0DB01A25EBE4F1C968C91808381E0A9
:1003700008959F5F943008F4BFCF80E00895CF9335
:10038000DF931F92CDB7DEB780E28983CE0101965D
:100390000E947301882321F0898180932F0102C07C
:1003A00010922F010F90DF91CF91089580912F012E
:1003B000089565B1982F9074492F50E05595479551
:1003C000559547955595479555954795982F90780C
:1003D000292F30E0022E232F000C221F330B000C9C
:1003E000221F331F962F997F492B242B25B968B1E3
:1003F000982F9071492F50E0559547955595479501
:1004000055954795982F9072292F30E0359527956F
:100410003595279535952795962F997F492B242B30
:1004200028B99BB192609BB99BB191609BB925EDB6
:100430002A95F1F700009BB19E7F9BB99BB19D7FF0
:100440009BB995ED9A95F1F7000065B120E1829F87
:10045000C0011124AC014074552755954795559519
:10046000479555954795559547959C012078332795
:10047000022E232F000C221F330B000C221F331FD0
:10048000362F397F432B242B25B948B19C0120718D
:10049000332735952795359527953595279580727E
:1004A0009927959587959595879595958795942FF7
:1004B000997F292B822B88B98BB182608BB98BB144
:1004C00081608BB985ED8A95F1F700008BB18E7F45
:1004D0008BB98BB18D7F8BB995ED9A95F1F70000B3
:1004E000089565B1982F9074492F50E05595479520
:1004F000559547955595479555954795982F9078DB
:10050000292F30E0022E232F000C221F330B000C6A
:10051000221F331F962F997F492B242B25B968B1B1
:10052000982F9071492F50E05595479555954795CF
:1005300055954795982F9072292F30E0359527953E
:100540003595279535952795962F997F492B242BFF
:1005500028B99BB191609BB9EFE9FFE03197F1F7C2
:1005600000C000009BB19E7F9BB9EFE9FFE031978F
:10057000F1F700C0000065B1F0E18F9FC0011124C8
:10058000AC01407455275595479555954795559518
:100590004795559547959C0120783327022E232FA8
:1005A000000C221F330B000C221F331F362F397F04
:1005B000432B242B25B948B19C0120713327359555
:1005C0002795359527953595279580729927959587
:1005D00087959595879595958795942F997F292B44
:1005E000822B88B98BB181608BB98FE99FE001972D
:1005F000F1F700C000008BB18E7F8BB9EFE9FFE00F
:100600003197F1F700C000000895623031F0633097
:1006100031F0613029F4805C03C08C5E01C08C5ADB
:1006200080680E9471020895EF92FF920F931F93CA
:10063000CF93DF937C01862F90E0880F991F880F5E
:10064000991F880F991F8064C0E0D0E00DC0F701AA
:10065000EC0FFD1F149101E0080F0E947102812F21
:100660000E94D9012196802FC830D10580F3DF91F7
:10067000CF911F910F91FF90EF900895CF93DF934B
:100680008FE59AEE0197F1F700C0000085B1897FF0
:1006900085B988B1897F88B91BB887B1866087B969
:1006A00084B1866084B984B1866084B987B186607C
:1006B00087B98AB183608AB985B1897F85B988B1E4
:1006C000866088B98BB181608BB98FE99FE0019713
:1006D000F1F700C000008BB18E7F8BB98FE99FE0EE
:1006E0000197F1F700C0000085B1897F85B988B115
:1006F000866088B98BB181608BB98FE99FE00197E3
:10070000F1F700C000008BB18E7F8BB98FE99FE0BD
:100710000197F1F700C0000085B1897F85B988B1E4
:10072000897F846088B98BB181608BB98FE99FE044
:100730000197F1F700C000008BB18E7F8BB98FE974
:100740009FE00197F1F700C0000088E20E9471026B
:100750008CE00E94710260E0C0E00AC0D1E0D60FD8
:100760008C2F90E088599F4F0E941403C85F6D2F13
:10077000C034A0F3DF91CF910895EF92FF920F93D1
:100780001F93CF93DF9300D000D01F92CDB7DEB779
:100790007B01FE01319625E0DF011D922A95E9F7E4
:1007A00024E030E00FC06AE070E00E942B0AE1E034
:1007B000F0E0EC0FFD1FE20FF31F8083862F972FD1
:1007C00021503109009779F7BFEFEB16FB0681F452
:1007D00003C00F5F1F4F02C000E010E0E1E0F0E057
:1007E000EC0FFD1FE00FF11F2081222391F304C0C5
:1007F00005E010E00E191F09992384F48DE20E9490
:10080000D9010CC0E1E0F0E0EC0FFD1FE00FF11F9B
:100810008081805D0E94D9010F5F1F4F0530110557
:100820008CF30F900F900F900F900F90DF91CF915E
:100830001F910F91FF90EF9008950E9473000E9406
:100840003E030E94620840910601509107016091A9
:1008500008017091090180910A0190910B010E9499
:1008600021090E94AB08FDCFCF93DF9300D000D0C9
:1008700000D0CDB7DEB749835A836B837C838D83E9
:100880009E8361E084E00E9405038C8162E070E059
:1008900090E00E94BD038FE20E94D9018D8162E049
:1008A00070E090E00E94BD038FE20E94D9018E812A
:1008B00062E070E090E00E94BD0360E084E00E948E
:1008C00005038B8162E070E090E00E94BD038AE343
:1008D0000E94D9018A8162E070E090E00E94BD032D
:1008E0008AE30E94D901898162E070E090E00E9471
:1008F000BD0326960FB6F894DEBF0FBECDBFDF91C5
:10090000CF91089580913C018130F9F40E94D60185
:100910008134D9F40E943301F42FE52F862F972FCD
:100920002093360130933701F0933801E093390179
:1009300060933A0170933B01422F532F6F2F7E2F0C
:100940000E94430981E080933D01089580913C011C
:10095000813009F06FC080E28093300120E331E004
:100960004091360150913701609138017091390101
:1009700080913A0190913B010E9464090E94D60146
:10098000823469F018F4813431F008958334F9F039
:100990008434B1F1089582E080933D010895E6E347
:1009A000F1E085818F5F8583843611F410923B01DD
:1009B00040913601509137016091380170913901B1
:1009C00080913A0190913B010E9443090895E6E32A
:1009D000F1E08581815085838F3F19F483E6809310
:1009E0003B0140913601509137016091380170917F
:1009F000390180913A0190913B010E944309089589
:100A00000E943301F42FE52F862F972F2093360174
:100A100030933701F0933801E093390160933A0144
:100A200070933B01422F532F6F2F7E2F0E9421097D
:100A300010923D01089580913C01813009F0B2C0CF
:100A400080E28093310120E331E040913601509102
:100A50003701609138017091390180913A0190918C
:100A60003B010E9464090E94D601823479F018F497
:100A7000813441F00895833409F441C0843409F489
:100A800077C0089583E080933D010895E6E3F1E0A7
:100A900084818F5F84838D3019F481E080933A01E3
:100AA000E6E3F1E08481338121E0823009F020E047
:100AB00091E03E3108F490E0922319F091E0909398
:100AC0003901843031F0863021F0893011F08B30DB
:100AD00039F4809139018F3118F081E08093390128
:100AE0004091360150913701609138017091390180
:100AF00080913A0190913B010E9443090895E6E3F9
:100B0000F1E0848181508483811103C08CE0809363
:100B10003A01E6E3F1E08481338121E0823009F09B
:100B200020E091E03E3108F490E0922319F091E04A
:100B300090933901843031F0863021F0893011F002
:100B40008B3039F4809139018F3118F081E0809336
:100B5000390140913601509137016091380170910F
:100B6000390180913A0190913B010E944309089517
:100B70000E943301F42FE52F862F972F2093360103
:100B800030933701F0933801E093390160933A01D3
:100B900070933B01422F532F6F2F7E2F0E9421090C
:100BA00010923D01089580913C01813009F0B1C05F
:100BB00080E28093320120E331E040913601509190
:100BC0003701609138017091390180913A0190911B
:100BD0003B010E9464090E94D601823479F018F426
:100BE000813441F00895833409F441C0843409F418
:100BF00076C0089584E080933D010895E6E3F1E036
:100C000083818F5F8383248131E0223009F030E0DB
:100C100091E08E3109F090E0932319F081E0809308
:100C20003901243031F0263021F0293011F02B30F9
:100C300041F4809139018F3159F481E08093390179
:100C400007C080913901803219F481E08093390125
:100C5000409136015091370160913801709139010E
:100C600080913A0190913B010E9443090895E6E387
:100C7000F1E0838181508383948131E0923009F0E7
:100C800030E021E0811120E0232319F08DE18093F1
:100C90003901943031F0963021F0993011F09B30C9
:100CA00041F48091390181110BC08EE180933901AB
:100CB00007C080913901811103C08FE18093390110
:100CC000409136015091370160913801709139019E
:100CD00080913A0190913B010E94430908950E943E
:100CE0003301F42FE52F862F972F20933601309371
:100CF0003701F0933801E093390160933A01709322
:100D00003B01422F532F6F2F7E2F0E9421091092FB
:100D10003D01089580913C01813009F06FC080E26F
:100D20008093330120E331E0409136015091370147
:100D3000609138017091390180913A0190913B01A5
:100D40000E9464090E94D601823469F018F481344B
:100D500031F008958334F9F08434B1F1089585E0D9
:100D600080933D010895E6E3F1E082818F5F828305
:100D7000883111F4109238014091360150913701B9
:100D8000609138017091390180913A0190913B0155
:100D90000E9443090895E6E3F1E082818150828355
:100DA0008F3F19F487E180933801409136015091CB
:100DB0003701609138017091390180913A01909129
:100DC0003B010E94430908950E943301F42FE52F4F
:100DD000862F972F2093360130933701F0933801F7
:100DE000E093390160933A0170933B01422F532FF6
:100DF0006F2F7E2F0E94210910923D01089580914E
:100E00003C01813009F06FC080E28093340120E31F
:100E100031E0409136015091370160913801709175
:100E2000390180913A0190913B010E9464090E942E
:100E3000D601823469F018F4813431F00895833496
:100E4000F9F08434B1F1089586E080933D0108956E
:100E5000E6E3F1E081818F5F81838C3311F410929E
:100E600037014091360150913701609138017091FE
:100E7000390180913A0190913B010E944309089504
:100E8000E6E3F1E08181815081838F3F19F48BE3A8
:100E900080933701409136015091370160913801BC
:100EA0007091390180913A0190913B010E94430970
:100EB00008950E943301F42FE52F862F972F20935A
:100EC000360130933701F0933801E0933901609394
:100ED0003A0170933B01422F532F6F2F7E2F0E94B8
:100EE000210910923D0108951F93CF93DF9300D005
:100EF00000D000D0CDB7DEB749835A836B837C83A3
:100F00008D839E83693108F042C05C3308F03FC096
:100F10004C33E8F58D818D30D0F5172F7032B8F550
:100F2000843031F0863021F0893011F08B3059F463
:100F30001F3168F549815A816B817C818D819E8149
:100F40000E94540124C08230D1F40E947F00882383
:100F500059F01D31E0F449815A816B817C818D818A
:100F60009E810E94540113C01E3188F449815A8128
:100F70006B817C818D819E810E94540108C04981D2
:100F80005A816B817C818D819E810E9454012696BD
:100F90000FB6F894DEBF0FBECDBFDF91CF911F918A
:100FA000089580913C01813009F08BC080E28093EC
:100FB000350120E331E040913601509137016091D5
:100FC00038017091390180913A0190913B010E9462
:100FD00064090E94D601823449F118F4813439F051
:100FE00008958334D9F1843409F451C008954091AF
:100FF000360150913701609138017091390180912B
:101000003A0190913B010E94740740913601509142
:101010003701609138017091390180913A019091C6
:101020003B010E94210910923D010895E6E3F1E0A1
:1010300080818F5F80838C3311F410923601409150
:1010400036015091370160913801709139018091DA
:101050003A0190913B010E9443090895E6E3F1E0D3
:101060008081815080838F3F19F48BE38093360118
:1010700040913601509137016091380170913901EA
:1010800080913A0190913B010E94430908950E948A
:101090003301F42FE52F862F972F209336013093BD
:1010A0003701F0933801E093390160933A0170936E
:1010B0003B01422F532F6F2F7E2F0E942109109248
:1010C0003D01089510923D01089580913C018823CF
:1010D00019F010923C0103C081E080933C01E09143
:1010E0003D01F0E0EE0FFF1FE45FFE4F0190F08145
:1010F000E02D0995089580911C018F5F80931C015C
:101100008A3029F481E08093520110921C01809171
:1011100054018F5F80935401813021F480935101F9
:101120001092540180911D018F5F80931D018431C5
:1011300029F481E08093530110921D0180911B01DD
:101140008F5F80931B01843629F481E080935001E6
:1011500010921B01089580915301813021F40E9467
:10116000BF011092530180915201813021F40E94FD
:1011700065081092520181E090915101913009F07F
:1011800080E020911A0191E0213009F090E098234D
:10119000F9F040914A0150914B0160914C017091DE
:1011A0004D0180914E0190914F010E9434041092A4
:1011B00051010E94330120934A0130934B01409327
:1011C0004C0150934D0160934E0170934F0118C034
:1011D00091E0211190E0892399F0409144015091D0
:1011E00045016091460170914701809148019091BD
:1011F00049010E9434041092510182E080931A0147
:1012000091E080915001813009F090E081E02091DF
:101210001A01223009F080E0892391F040913E01CB
:1012200050913F01609140017091410180914201D4
:10123000909143010E9434041092500110921A01BF
:101240000895CF93DF9300D000D000D0CDB7DEB7A4
:1012500049835A836B837C838D839E8386E0FE0162
:101260003196AAE4B1E001900D928A95E1F781E010
:1012700080931A0126960FB6F894DEBF0FBECDBF3D
:10128000DF91CF910895CF93DF9300D000D000D0AD
:10129000CDB7DEB749835A836B837C838D839E836E
:1012A00086E0FE013196A4E4B1E001900D928A95AA
:1012B000E1F710921A0126960FB6F894DEBF0FBE22
:1012C000CDBFDF91CF910895CF92DF92EF92FF9241
:1012D0000F931F93CF93DF9300D000D000D0CDB7F2
:1012E000DEB749835A836B837C838D839E83690138
:1012F00000E010E094C07601E00EF11EF70190814D
:1013000081E0903209F080E091E00115110509F0CB
:1013100090E0982381F061E08AE00E940503F701E4
:1013200080810E94D901F70180810E94D90180E368
:10133000F701808372C091E00130110509F090E05F
:10134000982381F061E087E00E940503F701808126
:101350000E94D901F70180810E94D90180E3F70141
:1013600080835BC091E00230110509F090E0982382
:1013700081F061E084E00E940503F70180810E9412
:10138000D901F70180810E94D90180E3F7018083B0
:1013900044C091E00330110509F090E0982381F0FA
:1013A00060E084E00E940503F70180810E94D9017A
:1013B000F70180810E94D90180E3F70180832DC06D
:1013C00091E00430110509F090E0982381F060E08D
:1013D00087E00E940503F70180810E94D901F7018F
:1013E00080810E94D90180E3F701808316C091E0DB
:1013F0000530110509F090E0892379F060E08AE07A
:101400000E940503F70180810E94D901F7018081C4
:101410000E94D90180E3F70180830F5F1F4F0630E0
:1014200011050CF468CF86E0FE013196AEE3B1E021
:1014300001900D928A95E1F726960FB6F894DEBFDB
:101440000FBECDBFDF91CF911F910F91FF90EF9015
:10145000DF90CF90089597FB072E16F4009407D0E5
:1014600077FD09D00E943F0A07FC05D03EF4909515
:1014700081959F4F0895709561957F4F0895AA1BA0
:10148000BB1B51E107C0AA1FBB1FA617B70710F06F
:10149000A61BB70B881F991F5A95A9F780959095A1
:0A14A000BC01CD010895F894FFCFC0
:1014AA003B3B171F0C153B3B171F0C158204A60468
:1014BA001B05D3058A06FF06D107016309133233D8
:0E14CA00314135363442383937432A23304415
:00000001FF
